:020000040800F2
:100000005007002001010008DD240008291900081C
:10001000B51F0008190F0008213700080000000074
:10002000000000000000000000000000252D000876
:100030003B0F00080000000081270008112E000877
:100040001B0100081B0100081B0100081B01000820
:100050001B0100081B0100081B0100081B01000810
:100060001B0100081B0100081B0100081B01000800
:100070001B0100081B0100081B0100081B010008F0
:100080001B0100081B0100081B0100081B010008E0
:100090001B0100081B0100081B0100081B010008D0
:1000A0001B0100081B0100081B0100081B010008C0
:1000B0001B010008AD2F00081B0100081B010008F0
:1000C0001B0100081B0100081B0100081B010008A0
:1000D0001B0100081B0100081B010008A9340008CF
:1000E0001B0100081B0100081B010008DFF80CD0F1
:1000F00000F0C4FB00480047F93E0008500700200C
:100100000648804706480047FEE7FEE7FEE7FEE7B1
:10011000FEE7FEE7FEE7FEE7FEE7FEE7212E00082A
:10012000ED00000840EA01039B0703D009E008C97D
:10013000121F08C0042AFAD203E011F8013B00F8AC
:10014000013B521EF9D27047D2B201E000F8012BF8
:10015000491EFBD270470022F6E710B513460A4647
:1001600004461946FFF7F0FF204610BDF0B480EAC0
:100170000102D40F4200B2EB410F02D20246084600
:1001800011464A0042D0C30DDDB2C1F3C752AD1AC9
:10019000202D35DAC1F3160141F4000204B15242B8
:1001A000C5F1200602FA06F12A411044B3EBD05FF4
:1001B00023D0C4B1012DA0EBC35009DCF0BC4FF03B
:1001C000004202EAC352DBB200F5000000F044BA7C
:1001D000400000F1807000EBC350A0F1807040EA55
:1001E000D170490009E0490841EAC071A0EBC35051
:1001F00000F50000400800EBC350F0BC00F023BA4B
:100200006142012202EB4101001BF6E7F0BC70479E
:1002100081F00041AAE780F00040A7E780EA0102F0
:1002200010B502F00043400022D04A001FD0010E5A
:1002300001EB1261C0F35600C2F3560240F4000015
:1002400042F40002A0FB022000047F39140400D015
:10025000401C50EA124001D44000491EC2B20C06B4
:1002600004EBD010401C4008802A02D003E000209C
:1002700010BD20F00100002900DA0020184310BD55
:1002800030B480EA010202F0004530F0004221F073
:10029000004013D090B1C30DD40DC2F31601C0F3CA
:1002A0001600E41A41F4000140F400027D3491424A
:1002B00001D3641C00E04900002C02DA30BC0020AD
:1002C00070474FF400000023914201D3891A034381
:1002D00040084FEA4101F7D151B1914202D14FF0AC
:1002E000004105E002D24FF0010101E06FF0010191
:1002F00003EBC450284430BC00F0A5B92DE9FE4FF3
:10030000804681EA0300C00F0C46009021F00041B6
:1003100023F00045B8EB0200A94105D24046214632
:1003200090461C460B46024623F00040104347D03F
:10033000270DC7F30A00C3F30A510290401A019037
:1003400040286BDAC3F3130040F4801B00989246F8
:1003500020B10023D2EB030A63EB0B0B0198594643
:10036000C0F14002504600F04DF906460D46504699
:100370005946019A00F055F910EB0800614100243C
:1003800087EA115284EAE7731A4340D0009A62B3B5
:10039000019A012A4FEA075215DC001B61EB0201AA
:1003A0004FF0004202EA0752CDE90042001C41F53D
:1003B000801132462B4600F08CF903B0BDE8F08F77
:1003C00040462146F9E7001B61EB0201001C41F5A4
:1003D000801300185B412018A2F5001747EB0301BA
:1003E00040EAD570B6196D4111E06D084FEA360646
:1003F00045EAC0754FEA0752001B61EB0201001C81
:1004000041F5801149084FEA300000195141324648
:100410002B4603B0BDE8F04F00F04CB90098012224
:1004200040000023D0EB020263EBE073009821460A
:100430004FEAE074B8EB000061EB0401E9E783F0F8
:1004400000435BE781F0004158E72DE9FE4F81EA68
:10045000030404F0004421F0004100944FF0000B2D
:1004600023F0004350EA01045ED052EA03045BD05B
:10047000C3F30A54C1F30A552C44A4F2F334019493
:10048000A0FB0254C1F3130141F48011C3F3130321
:1004900043F4801301FB024400FB034E840A970AD5
:1004A00044EA815447EA8357A4FB076802958D0A02
:1004B00005FB07854FEA932C04FB0C542705029D8E
:1004C0004FEA065847EA1637B5EB08056EEB070CFE
:1004D000870E920E47EA811742EA8312A7FB0201B8
:1004E000B6EB0B0164EB00042B0D43EA0C335E18F2
:1004F00044EB1C50DA465146E7FB0201C5F31304F6
:100500004FEA0B3343EA14534FEA0432019C43EAA7
:100510000603A4F10C040294009CCDE900B400F0A1
:10052000D8F803B0BDE8F08F00200146F9E7C10F0D
:1005300080EAE0700844CA079623002100F08CB8D6
:1005400096230022114600F087B800F0004220F008
:100550000040C10DC0F3160040F400007F2901DA0D
:1005600000207047962903DCC1F19601C84001E0E4
:1005700096398840002AF4D04042704700F000428B
:1005800030F000400AD0C10D01F56071C0F31600D3
:1005900042EA0151C208400711437047002001465A
:1005A000704701F0004330B421F0004150EA0102ED
:1005B00006D00A0DA2F56072C1F31301002A02DC15
:1005C00030BC00207047440F44EAC104C100E01869
:1005D00030BC00EBC25000F036B80000002801DB50
:1005E000C0F10040002901DBC1F1004181427047A8
:1005F000002801DBC0F10040002901DBC1F100410E
:1006000088427047202A04DB203A00FA02F10020D9
:1006100070479140C2F1200320FA03F31943904040
:100620007047202A06DBCB17203A41FA02F043EA52
:10063000E07306E041FA02F3D040C2F1200291409B
:100640000843194670470029A8BF7047401C49005D
:1006500008BF20F00100704710B4B0FA80FC00FA27
:100660000CF050EA010404BF10BC704749B1CCF152
:10067000200421FA04F411FA0CF118BF01212143DE
:100680000843A3EB0C01CB1D4FEA00614FEA102099
:1006900042BF002010BC704700EBC350104400293B
:1006A000A4BF10BC7047401C490008BF20F00100E7
:1006B00010BC704710B5141E73F1000408DA401C1A
:1006C00041F1000192185B411A4301D120F0010071
:1006D00010BD2DE9F04D92469B4611B1B1FA81F261
:1006E00002E0B0FA80F220329046FFF78BFF04461A
:1006F0000F4640EA0A0041EA0B0153465A460843B6
:1007000013D0114653EA010019D0C8F140025046F7
:1007100000F0C6F805460E46504659464246FFF7D9
:1007200071FF084305D0012004E020463946BDE8AA
:10073000F08D0020054346EAE0762C4337430A98C3
:100740006305E40AA0EB08000022FD0A44EA4754CE
:100750000A3002D500200146E9E701051019694178
:10076000DDE9084500196941BDE8F04DA2E72DE932
:10077000F04D81EA030404F0004B21F000451446DB
:100780004FF0000A23F0004150EA050220D054EA5D
:1007900001021DD0C5F30A570246C5F31303C1F386
:1007A0001300C1F30A5640F4801543F48013A7EBFD
:1007B0000608101BD64608F2FD3873EB050002D37D
:1007C00008F1010801E092185B41B8F1000F03DA6B
:1007D00000200146BDE8F08D00204FF48011064650
:1007E00084460EE0171B73EB050705D3121B63EB62
:1007F000050306434CEA010C49084FEA3000921801
:100800005B4150EA0107EDD152EA030012D082EABF
:10081000040083EA0501084305D0101BAB4106D252
:100820000122002306E000224FF0004302E06FF0B7
:10083000010253101AEB06004CEB085110EB0A00B2
:1008400041EB0B01BDE8F04DFFF734BF70B521F06F
:10085000004303430CD0C1F30A550024D5EB040533
:1008600064EB0403D617AD1AB34102DB0020014646
:1008700070BD201841EB025170BD0000064C074DC1
:1008800006E0E06840F0010394E807009847103460
:10089000AC42F6D3FFF72EFCF042000810430008EC
:1008A000202A04DB203A21FA02F00021704721FAC5
:1008B00002F3D040C2F1200291400843194670472C
:1008C0002DE9F04D00231A461B1A8A4103DB002054
:1008D0000146BDE8F08DC1F30A52C1F3130141F4A2
:1008E00080154FF0000BD10702D100186D41521E48
:1008F0000027044640F2FF11384601EB620A3E46EB
:100900008046024600204FF48011FFF7C9FFC2194C
:100910007141BB1846EB0100B4EB030C75EB000C06
:1009200004D3E41A65EB000517460E46241908F1B6
:1009300001006D4180463428E3DDF91946EB0600DD
:10094000091BA84103D24FF0FF32134601E00022F9
:1009500013461BEB070046EB0A51BDE8F04DFFF7CD
:10096000A9BE10B501F060FA03F04EFB01F006FBE2
:1009700001F076FD02F044FD01F0B4FE02F080FAD1
:1009800002F0E2FA10BD000010B5044694F902002E
:1009900011281FD008DC012839D0022838D00328BC
:1009A00053D0102852D108E0122820D013282BD081
:1009B00014282AD0152849D128E02648007820F0AC
:1009C0000100401C234908701222211D2248FFF714
:1009D000A9FB3CE01222211D2048FFF7A3FB1D4884
:1009E000007820F00200801C1A4908702FE01222C3
:1009F000211D1B48FFF796FB1648007820F00400E5
:100A0000001D1449087022E021E020E01FE01EE0F4
:100A10002079212813D004DC012807D0022811D125
:100A20000CE0A0280CD0A1280CD10AE009480078DD
:100A300020F0400040300749087004E003E002E085
:100A400001E000E000BF00BF01E000E000BF00BF28
:100A500010BD000090000020D0020020E202002023
:100A6000F40200202DE9F04F87B00746022601ACC2
:100A70004FF000084FF000094FF0000A162F7CD20B
:100A8000DFE807F0CEA49493CECD91A3CECECECE08
:100A9000CECECECE0B12191E1F20DFF8F081DFF86C
:100AA000F091DFF8F0A10EE0DFF8EC81DFF8EC91D7
:100AB000DFF8ECA107E0DFF8EC81DFF8EC9102E071
:100AC00000BF00BF00BFB8F1000F20D0D8F8100061
:100AD0007649FFF7A3FB8346FFF737FD00B2ADF879
:100AE0000800D8F814007149FFF798FB8346FFF718
:100AF0002CFD00B2ADF80A00D8F818006B49FFF7DA
:100B00008DFB8346FFF721FD00B2ADF80C00B9F173
:100B1000000F20D0D9F810006449FFF77FFB83460F
:100B2000FFF713FD00B2ADF80E00D9F814005F49CD
:100B3000FFF774FB8346FFF708FD00B2ADF8100025
:100B4000D9F818005949FFF769FB8346FFF7FDFC08
:100B500000B2ADF81200BAF1000F22D0DAF810009E
:100B60005249FFF75BFB8346FFF7EFFC00B2ADF89D
:100B70001400DAF814004D4900E051E0FFF74EFB95
:100B80008346FFF7E2FC00B2ADF81600DAF8180071
:100B90004649FFF743FB8346FFF7D7FC00B2ADF8A9
:100BA000180012263DE008263BE03AE04048016884
:100BB000029141680391806804903E480168059164
:100BC0008088ADF8180012262BE02AE03A48006829
:100BD00080F0004039490090FFF720FB8346FFF783
:100BE000B4FC00B2ADF80800334948683349FFF758
:100BF00015FB8346FFF7A9FC00B2ADF80A002E48AA
:100C0000806880F000402D490090FFF707FB834685
:100C1000FFF79BFC00B2ADF80C00062601E000E0F7
:100C200000BF00BF4AF6AA20ADF8040046EA07203C
:100C300000B2ADF806005421301D215402251AE0FF
:100C40006057691C615648406055681C20566157C2
:100C50004840691C60546057615648406055615D6A
:100C6000681C205C0144301D205C084441B2301DEA
:100C70002154A81CC5B2301D8542E1DB701DC1B2F4
:100C8000204602F093FC07B0BDE8F08F1801002069
:100C90004C01002080010020E8010020B401002068
:100CA0001C020020500200208402002000007A4430
:100CB000F000002020000020FC0000200000C842BE
:100CC0002DE9F8438648007820B1012806D0022893
:100CD00072D116E0012082490870FEE00220FFF781
:100CE000C1FE012003F0CAF80120FFF7BBFE01207E
:100CF00003F0C4F87B48007810B1022078490870EE
:100D0000EBE07848007810B9012075490870754803
:100D10000078C0F38010B8B11020FFF7A3FE0120C7
:100D200003F0ACF81120FFF79DFE012003F0A6F8B8
:100D30001220FFF797FE012003F0A0F86948007821
:100D400020F04000674908706648007800F03F00D6
:100D500000287DD00025002600276248007800F09A
:100D6000010050B1604D614E614F624C5D480078AA
:100D700020F001005B49087020E05A480078C0F379
:100D8000400050B15C4D5D4E5D4F5E4C5548007863
:100D900020F002005349087010E052480078C0F378
:100DA000800050B1584D594E594C4E48007820F0B3
:100DB00004004C49087001E08EE08EE065B32078B5
:100DC0008DF8010060788DF80000BDF80000FFF795
:100DD000B7FB80464F49FFF753FA2861A0788DF89A
:100DE0000100E0788DF80000BDF80000FFF7A8FBD7
:100DF00080464849FFF744FA686120798DF8010080
:100E000060798DF80000BDF80000FFF799FB80467F
:100E10004049FFF735FAA86176B3A0798DF8010053
:100E2000E0798DF80000BDF80000FFF789FB8046EF
:100E30003849FFF725FA3061207A8DF80100607A91
:100E40008DF80000BDF80000FFF77AFB804600E057
:100E500041E03049FFF714FA7061A07A8DF8010083
:100E6000E07A8DF80000BDF80000FFF769FB8046CE
:100E70002849FFF705FAB06167B3207B8DF80100C0
:100E8000607B8DF80000BDF80000FFF759FB80463D
:100E90002049FFF7F5F93861A07B8DF80100E07B70
:100EA0008DF80000BDF80000FFF74AFB80461949A5
:100EB000FFF7E6F97861207C8DF80100607C8DF801
:100EC0000000BDF80000FFF73BFB80461149FFF72B
:100ED000D7F9B86100BF00E000BF00BFBDE8F883EC
:100EE0009100002090000020180100204C010020FB
:100EF00080010020D0020020E8010020B401002081
:100F00001C020020E2020020500200208402002087
:100F1000F402002000007A4400BFFEE770B50646E8
:100F20000C4615462946204603F038F8A06A306082
:100F30002946304603F032F870BD704770B504465C
:100F400042480078012806D00B280BD01F2817D064
:100F5000FF286FD165E03E48007810B10B203B4977
:100F600008706BE008213B4803F002F800203A4982
:100F700048620860394988601F20344908705DE084
:100F80003749B1F90600FFF7D2FA0546354801683E
:100F90002846FFF743F9344948623149B1F908005E
:100FA000FFF7C5FA05462F4801682846FFF736F9CE
:100FB0002E4948622A49B1F90A00FFF7B8FA0546F6
:100FC000284801682846FFF729F92949486223483B
:100FD00040682849486221480068274948621F48FC
:100FE00080681D4948622146234802F0D7FF224805
:100FF000806A1D49086021461B4802F0CFFF214648
:101000001C4802F0CBFF1B48806A18490860214643
:10101000164802F0C3FF22460F491548FFF77EFF2E
:101020000CE008210B4802F0A3FF012007490870DB
:1010300004E0FFE7FF200549087000BF00BF044837
:10104000007810B9FF200149087070BDCC00002065
:1010500026000020A40000201C020020FC0000202C
:10106000F0000020F0410008180100204C01002091
:1010700080010020B4010020E80100202DE9F041AA
:10108000024600250026002000230024002791F8B6
:1010900003C00CF00F0591F803C00CF0100CBCF16C
:1010A000000F03D091F802C04CEA050591F800C08A
:1010B000BCF1000F31D0146800202BE04FF0010C80
:1010C0000CFA00F3B1F800C00CEA03069E4220D1EE
:1010D00083004FF00F0C0CFA03F7BC4305FA03FC36
:1010E0004CEA040491F803C0BCF1280F06D14FF07C
:1010F000010C0CFA00FCC2F814C00AE091F803C01D
:10110000BCF1480F05D14FF0010C0CFA00FCC2F8FD
:1011100010C0401C0828D1D31460B1F800C0BCF145
:10112000FF0F34DD546800202EE000F1080C4FF072
:10113000010808FA0CF3B1F800C00CEA03069E425D
:1011400021D183004FF00F0C0CFA03F7BC4305FAD2
:1011500003FC4CEA040491F803C0BCF1280F05D14C
:1011600000F1080C08FA0CF8C2F8148091F803C0DA
:10117000BCF1480F07D100F1080C4FF0010808FA44
:101180000CF8C2F81080401C0828CED35460BDE88B
:10119000F08101617047000007B5A4B04FF07C51A9
:1011A0002698FFF73BF81190FE4880680D90FD48A7
:1011B00000680C900D99FFF731F80F90F948C0685E
:1011C0000D90F84840680C900D99FFF727F80E90A5
:1011D0000F99FFF71DF84FF080411090FFF71EF8B0
:1011E0002090F048C0680D90EE4880680C900D99F2
:1011F000FFF714F80F90EB4840680D90E94800683D
:101200000C900D99FFF70AF80E900F99FEF7AEFFBC
:101210004FF080411090FFF701F82190E14880687D
:101220000C90E04880680B900C99FEF7F7FF0E9049
:10123000DC4840680C90DB4840680B900C99FEF746
:10124000EDFF0D900E99FEF791FF4FF080410F904A
:10125000FEF7E4FF4FF07E511090FEF7DCFF229086
:10126000D148B0F904000B90FFF761F90D90CE481A
:10127000B0F904000B90FFF75AF90C900D99FEF7A6
:10128000CDFF0F90C848B0F902000990FFF74FF961
:101290000B90C548B0F902000990FFF748F90A9091
:1012A0000B99FEF7BBFF0D90BF48B0F90000099005
:1012B000FFF73DF90B90BC48B0F900000990FFF72B
:1012C00036F90A900B99FEF7A9FF0C900D99FEF7DD
:1012D0004DFF0E900F99FEF749FF109001F0E4FAD0
:1012E000B24908602498B0F900000F90FFF71FF989
:1012F0001090AE4801681098FEF790FF1D9024985A
:10130000B0F902000F90FFF712F91090A74801689A
:101310001098FEF783FF1E902498B0F904000F90F8
:10132000FFF705F91090A14801681098FEF776FFC5
:101330001F9021980E901F980D900E99FEF76EFF4A
:10134000109022980E901E980D900E99FEF766FF51
:101350000F901099FEF75CFF179022980E901D9841
:101360000D900E99FEF75AFF109020980E901F983E
:101370000D900E99FEF752FF0F901099FEF748FF5F
:10138000189020980E901E980D900E99FEF746FF2B
:10139000109021980E901D980D900E99FEF73EFF2B
:1013A0000F901099FEF734FF199017980F9080480E
:1013B00001680F98FEF732FF10907E4800680146E2
:1013C0000F901098FEF7D2FE7A49086018980F9097
:1013D000774801680F98FEF721FF10907548406824
:1013E00001460F901098FEF7C1FE724948601998A7
:1013F0000F906F4801680F98FEF710FF10906D482E
:10140000806801460F901098FEF7B0FE6949886029
:10141000179801460D9068480068FEF7FFFE0F9090
:101420002498B0F906000C90FFF781F80D906348FE
:1014300001680D98FEF7F2FE0E900F99FEF796FEEA
:1014400010905C48006801460F901098FEF78EFEE1
:101450001A90189801460D9057480068FEF7DEFE76
:101460000F902498B0F908000C90FFF760F80D90E9
:10147000524801680D98FEF7D1FE0E900F99FEF7C5
:1014800075FE10904B48406801460F901098FEF78B
:101490006DFE1B90199801460D9047480068FEF7B5
:1014A000BDFE0F902498B0F90A000C90FFF73FF8AA
:1014B0000D90424801680D98FEF7B0FE0E900F990E
:1014C000FEF754FE10903B48806801460F9010983C
:1014D000FEF74CFE1C901C980D903248C0680C9092
:1014E0000D99FEF79BFE0F901B980B902D4880687E
:1014F0000A900B99FEF792FE0D902A48406880F002
:1015000000400B901A9801460A900B98FEF786FE51
:101510000C900D99FEF77CFE0E900F99FEF778FE69
:1015200010901199FEF77AFE16901C980D901D48A8
:1015300080680C900D99FEF771FE0F901B980B9030
:101540001848C0680A900B99FEF768FE0D901A982B
:101550000B90144800680A900B99FEF75FFE0C9000
:101560000D99FEF755FE0E900F99FEF7FFFD1090B6
:101570001199FEF753FE15901C980D90094840688C
:101580000C900D99FEF74AFE0F901B980B900548A2
:1015900000680A900B99FEF741FE0D901A980B9087
:1015A00000480DE0DC000020F0000020D00000200A
:1015B000D800002040030020D4000020F44100089F
:1015C000C0680A900B99FEF729FE0C900D99FEF762
:1015D000CDFD0E900F99FEF71BFE10901199FEF7AE
:1015E0001DFE14901C980D90B94800680C900D9940
:1015F000FEF714FE0F901B980B90B54840680A90B8
:101600000B99FEF70BFE0D90B148806880F000400A
:101610000B901A9801460A900B98FEF7FFFD0C906C
:101620000D99FEF7A3FD0E900F99FEF79FFD109008
:101630001199FEF7F3FD1390A548006810901699D4
:10164000FEF794FDA249086008464068109015997D
:10165000FEF78CFD9E4948600846806810901499FA
:10166000FEF784FD9A4988600846C0681090139977
:10167000FEF77CFD9649C8600846C0680D90084694
:10168000C0680C900D99FEF7C9FD0F9090488068D6
:101690000B908F4880680A900B99FEF7BFFD0D9064
:1016A0008B48406809908A48406808900999FEF77D
:1016B000B5FD0B9086480068099085480068089041
:1016C0000999FEF7ABFD0A900B99FEF74FFD0C90C0
:1016D0000D99FEF74BFD0E900F99FEF747FD109008
:1016E00001F0E2F812907A48006810901299FEF723
:1016F00095FD774908600846406810901299FEF7FA
:101700008DFD734948600846806810901299FEF775
:1017100085FD6F4988600846C06810901299FEF7F1
:101720007DFD6B49C8602498B0F90A000E90FEF761
:10173000FEFE0F90674801680F98FEF76FFD10904E
:1017400065491098FEF754FF04D364491098FEF7DA
:1017500045FF0DD226991098FEF760FD0F90259851
:10176000806801460E900F98FEF700FD259988606D
:101770005B480068FEF702FFCDE90C015448406861
:10178000014603904FF08040FEF748FD049050481A
:10179000C068014603900498FEF740FD06904C484F
:1017A0000068014603904FF08040FEF737FD04903B
:1017B00047488068014603900498FEF72FFD059086
:1017C0000699FEF725FD0790FEF7D8FECDE9080142
:1017D00002F03AF8CDE90A01DDE90C23FEF735FE07
:1017E000CDE90E01FEF7DDFE259948603C48006812
:1017F000FEF7C4FECDE90C01354880680146019032
:101800004FF08040FEF70AFD0290314880680146A3
:1018100001900298FEF702FD04902D4840680146B1
:1018200000904FF08040FEF7F9FC01902848406896
:10183000014600900198FEF7F1FC4FF07E510290B6
:10184000FEF7E9FC03900499FEF7E2FC0590FEF731
:1018500095FECDE908011E480068014601904FF051
:101860008040FEF7DBFC0290194840680146019079
:101870000298FEF7D3FC0490154880680146019059
:101880004FF08040FEF7CAFC02901148C068014644
:1018900001900298FEF7C2FC03900499FEF766FCE3
:1018A0000590FEF76BFECDE90601DDE9082302F0A5
:1018B00013FACDE90A01DDE90C23FEF7C6FDCDE9F7
:1018C0000E01FEF76EFE2599086027B000BD0000EE
:1018D000DC000020F041000800004040000040C053
:1018E000E841000800BF0E4801684FF0E02082691F
:1018F0000B4800688142F6D10A48006800EB4003BB
:10190000C3EBC010C2EBC000064B1B68B0FBF3F08A
:1019100001EB4103C3EBC11300EBC30070470000B0
:101920001C0000201400002000BFFEE708B5402086
:10193000304908600120009004E09DF80000401E3E
:10194000C0B200909DF800000028F6D180202949FF
:1019500008600120009004E09DF80000401EC0B225
:1019600000909DF800000028F6D140202149091F71
:1019700008600120009004E09DF80000401EC0B205
:1019800000909DF800000028F6D10120009004E0AE
:101990009DF80000401EC0B200909DF80000002895
:1019A000F6D10120009004E09DF80000401EC0B276
:1019B00000909DF800000028F6D10120009004E07E
:1019C0009DF80000401EC0B200909DF80000002865
:1019D000F6D14020074908600120009004E09DF8FE
:1019E0000000401EC0B200909DF800000028F6D113
:1019F00008BD0000140C014008B5402030490860C3
:101A00000120009004E09DF80000401EC0B200904C
:101A10009DF800000028F6D180202949091F0860A0
:101A20000120009004E09DF80000401EC0B200902C
:101A30009DF800000028F6D140202149091F0860C8
:101A40000120009004E09DF80000401EC0B200900C
:101A50009DF800000028F6D10120009004E09DF8D8
:101A60000000401EC0B200909DF800000028F6D192
:101A70000120009004E09DF80000401EC0B20090DC
:101A80009DF800000028F6D10120009004E09DF8A8
:101A90000000401EC0B200909DF800000028F6D162
:101AA0004020074908600120009004E09DF80000F4
:101AB000401EC0B200909DF800000028F6D108BD7D
:101AC000140C014008B50821002080222C4B1A601C
:101AD0004CE04206100E4022294B1B1D1A600122C9
:101AE000009204E09DF80020521ED2B200929DF8B0
:101AF0000020002AF6D10122009204E09DF8002087
:101B0000521ED2B200929DF80020002AF6D1402247
:101B10001B4B1A600122009204E09DF80020521E27
:101B2000D2B200929DF80020002AF6D10122009244
:101B300004E09DF80020521ED2B200929DF80020D1
:101B4000002AF6D10122009204E09DF80020521EE6
:101B5000D2B200929DF80020002AF6D1084A083A35
:101B6000126802F080020AB140F001000A00A1F1FF
:101B70000103D9B2ADD14022014B1B1D1A6008BD33
:101B8000100C014008B5082150E040222C4B1A608F
:101B90000122009204E09DF80020521ED2B2009271
:101BA0009DF80020002AF6D100F0800222B18022A8
:101BB000234B1B1F1A6002E08022214B1A60420651
:101BC000100E0122009204E09DF80020521ED2B2B5
:101BD00000929DF80020002AF6D14022184B1B1FCE
:101BE0001A600122009204E09DF80020521ED2B239
:101BF00000929DF80020002AF6D10122009204E014
:101C00009DF80020521ED2B200929DF80020002ABA
:101C1000F6D10122009204E09DF80020521ED2B2BB
:101C200000929DF80020002AF6D100BF0A00A1F121
:101C30000103D9B2A9D14022014B1A6008BD0000AE
:101C4000140C014008B5802022490860402008603B
:101C50000120009004E09DF80000401EC0B20090FA
:101C60009DF800000028F6D11A480838006808B925
:101C7000012000E0002000F0800008B1012008BD34
:101C800080201449091D08600120009004E09DF89F
:101C90000000401EC0B200909DF800000028F6D160
:101CA0000C480838006800F0800008B10120E6E721
:101CB00040200849091D08600120009004E09DF8BB
:101CC0000000401EC0B200909DF800000028F6D130
:101CD00000BFD4E7100C014008B54020244908603B
:101CE0000120009004E09DF80000401EC0B200906A
:101CF0009DF800000028F6D180201D4908600120D1
:101D0000009004E09DF80000401EC0B200909DF8D5
:101D100000000028F6D10120009004E09DF80000AA
:101D2000401EC0B200909DF800000028F6D140206F
:101D30000F49091F08600120009004E09DF8000091
:101D4000401EC0B200909DF800000028F6D180200F
:101D50000749091F08600120009004E09DF8000079
:101D6000401EC0B200909DF800000028F6D108BDCA
:101D7000140C014008B540202A4908600120009059
:101D800004E09DF80000401EC0B200909DF80000E5
:101D90000028F6D180202349091F08600120009007
:101DA00004E09DF80000401EC0B200909DF80000C5
:101DB0000028F6D140201B49091F0860012000902F
:101DC00004E09DF80000401EC0B200909DF80000A5
:101DD0000028F6D10120009004E09DF80000401E8C
:101DE000C0B200909DF800000028F6D101200090BC
:101DF00004E09DF80000401EC0B200909DF8000075
:101E00000028F6D107480C38006800F0800020B1A7
:101E1000402004490860012008BD402001490860B5
:101E20000020F9E7140C014008B50121082000F05A
:101E300073FDC020ADF8000003208DF802001420CF
:101E40008DF8030069460248FFF718F908BD000045
:101E5000000C014070B504460D460026FFF7F2FE67
:101E6000012800D170BD2046FFF78CFEFFF782FFEE
:101E7000012803D1FFF730FF0120F3E72846FFF7E1
:101E800081FEFFF777FFFFF727FFFFF7DBFE611CFF
:101E9000C8B2FFF777FEFFF76DFF012803D1FFF708
:101EA0001BFF0120DEE7FFF70DFE0646FFF7A4FD4E
:101EB000FFF712FF70B2D5E770B506460C4615461F
:101EC000FFF7C0FE012800D170BD3046FFF75AFE73
:101ED000FFF750FF012803D1FFF7FEFE0120F3E7D3
:101EE0002046FFF74FFEFFF745FF2846FFF74AFE63
:101EF000FFF740FFFFF7F0FE0020E5E72DE9F04196
:101F000006460F4615461C46FFF79CFE012801D1E8
:101F1000BDE8F0813046FFF735FEFFF72BFF0128C3
:101F200003D1FFF7D9FE0120F2E73846FFF72AFE7A
:101F3000FFF720FFFFF7D0FEFFF784FE711CC8B249
:101F4000FFF720FEFFF716FF012803D1FFF7C4FEBD
:101F50000120DDE70CE0FFF7B5FD2870012C02D170
:101F6000FFF74AFD01E0FFF7E1FC6D1C601EC4B203
:101F7000002CF0D1FFF7B0FE0020C9E708B54FF004
:101F800000700A4948600121082000F0C5FC40F2B9
:101F90000630ADF8000010208DF8030003208DF806
:101FA000020069460248FFF769F808BD00000140D9
:101FB000000C014000BFFEE72DE9F047984800788B
:101FC00010B9FF209749087096480078012806D07C
:101FD000022811D01F2819D0FF287DD1BBE0002096
:101FE0009149C8808880488008808D48007810B169
:101FF00002208C49087000BF8C48808840F24C4118
:10200000884202DD1F2087490870AFE08749898830
:10201000A1F57A70FEF78BFA06468548816A30464C
:10202000FEF7A4F80546FEF790FA04B27F488088D0
:10203000B0F57F7F06DA00207B49C8808880488021
:10204000088093E0002C01DA002006E0B4F5617FFF
:1020500002DD4FF4617000E020467349C88088803B
:1020600048800880734A916A734A906AFEF7D0F8F4
:1020700080467248816A4046FEF7CAF806466A49B9
:10208000B1F90000FEF753FA07463146FEF76EF845
:102090000546FEF75AFA00B263490880654A916A1C
:1020A000654A906AFEF762F880466448816A404655
:1020B000FEF75CF806465C49B1F90200FEF737FA14
:1020C00007463146FEF752F80546FEF73EFA00B2E3
:1020D00055494880584800E047E0806A80F0004851
:1020E0005448816A4046FEF741F807465348816AE2
:1020F0003846FEF78DF806464B49B1F90400FEF765
:1021000016FA81463146FEF731F80546FEF71DFA0C
:1021100000B2454988804848806A80F000484548B8
:10212000816A4046FEF774F807464448816A38469B
:10213000FEF71CF806463C49B1F90600FEF7F7F930
:1021400081463146FEF712F80546FEF7FEF900B269
:102150003549C8800AE000203349C880888048801B
:10216000088001202F49087000E000BF00BF2E4802
:10217000B0F90000002801DA00200BE02A48B0F98D
:102180000000B0F57A7F02DD4FF47A7002E0264855
:10219000B0F900004FF0804188862348B0F9020072
:1021A000002801DA00200BE01F48B0F90200B0F56A
:1021B0007A7F02DD4FF47A7002E01B48B0F902002A
:1021C0004FF0804108871848B0F90400002801DA70
:1021D00000200BE01448B0F90400B0F57A7F02DD6E
:1021E0004FF47A7002E01048B0F904004FF08041DB
:1021F00088870D48B0F90600002801DA00200BE0BE
:102200000948B0F90600B0F57A7F02DD4FF47A7024
:1022100002E00548B0F9060009490880BDE8F087EA
:1022200026000020CD000020C4000020080100206E
:10223000500200204C0100201801002080010020E5
:10224000400000402DE9FE4F06236A463B21D02086
:10225000FFF754FE06230DF106024321D020FFF7BD
:102260004DFE002458E0012000EB44001DF8000062
:102270001DF8141040EA0120294931F81410401AC1
:1022800000B22849096821F81400032C1BDA2549FB
:10229000096831F91400FEF74AF9054604EB4401D8
:1022A000214A02EBC100294601F0F9FD04EB44018B
:1022B0001D4A02EBC1018868FEF747F900B21949CF
:1022C000096821F81400022C24DDE01EC5B2DFF8F5
:1022D0005C801449096831F91400FEF728F9824638
:1022E0004146FDF79BFF0746114951F8250011496A
:1022F000FDF794FF81463946FDF738FF0C4941F858
:1023000025000646FEF721F900B20649096821F8C2
:10231000140000BF601CC4B2062CA4DBBDE8FE8F15
:10232000B802002044000020480000209A99193E7D
:10233000C40200209A99593FF0B58BB0182105A826
:10234000FDF709FF1E250526774200200390049023
:10235000404800210160416081604FF400503D49D8
:102360008880002201213C4800F092FE3BE000BF43
:102370000A2001F083FDFFF765FF002416E03748CF
:102380000168E01C31F8100003A931F81410401A5C
:1023900000B201A921F8140030480168E01C31F8AE
:1023A000100003A921F81400601C04B2032CE6DB22
:1023B000BDF904000528DBDCBDF9040010F1050FB0
:1023C000D6DBBDF906000528D2DCBDF9060010F108
:1023D000050FCDDBBDF908000528C9DCBDF90800F3
:1023E00010F1050FC4DB2800A5F10101CDB2BED16B
:1023F000002417E0FFF726FF642C11DB00200CE01F
:1024000005A951F82010154A126832F9102011441C
:1024100005AA42F82010411CC8B20628F0DB00BF14
:10242000601C04B2B4F5B27FE4DB002409E005A827
:1024300050F82400001200B2064921F81400601C74
:1024400004B2062CF3DB01221146034800F020FE03
:102450000BB0F0BDB8020020000400404400002092
:1024600010B5002400BF80226B21D020FFF724FD8F
:10247000C4B21E2001F002FD02221921D020FFF774
:102480001BFD2044C4B203226B21D020FFF714FDB2
:102490002044C4B203221A21D020FFF70DFD2044AE
:1024A000C4B218221B21D020FFF706FD2044C4B27D
:1024B00009221C21D020FFF7FFFC2044C4B2002CCD
:1024C000D1D17521D020FFF7C5FCC4B2682C01D052
:1024D000012010BDFFF730FF0020FAE77047000031
:1024E0001FB510A103C9CDE90201052202A93020C0
:1024F00000F0BEF805226946102000F067F80024BD
:1025000006E01DF80400A52800D003E0601CC4B25A
:10251000052CF6DB00BF052C02D0012004B010BD55
:102520000020FBE7A5A5A5A5A500000008B5012191
:10253000042000F0F1F94FF40060ADF80000102025
:102540008DF8030003208DF8020069461D48FEF750
:1025500095FD0121082000F0DFF94FF48050ADF81F
:10256000000010208DF8030003208DF8020069465A
:102570001548FEF783FD4FF40060124910310860E2
:1025800040001149103108600011ADF800004820EA
:102590008DF8030003208DF8020069460948FEF714
:1025A0006DFD4FF480710748FEF7F3FD00F028FB46
:1025B0004FF40060034914310860400002491031B3
:1025C000086008BD00080140000C01402DE9F04101
:1025D00007460D4616464FF480500C4908603846B1
:1025E00000F084FB8046002405E0FF2000F07EFB25
:1025F0002855601CC4B2B442F7DB4FF48050034945
:10260000091F08604046BDE8F0810000140C01403D
:1026100070B504464FF4805007490860204600F02A
:1026200065FBFF2000F062FB05464FF48050024935
:10263000091F0860284670BD140C014070B504469F
:102640000720FFF7E5FF05462946272000F032F86E
:1026500005F0400050B1202221466120FFF7B6FF6F
:10266000FF21E22000F026F8002070BD0120FCE7E9
:102670002DE9F04107460C4615464FF480500C49B1
:102680000860384600F032FB8046002605E014F86A
:10269000010B00F02BFB701CC6B2AE42F7DB4FF40F
:1026A00080500349091F08604046BDE8F0810000E2
:1026B000140C014070B505460C464FF48050084993
:1026C0000860284600F012FB0646204600F00EFB8C
:1026D0004FF480500249091F0860304670BD000069
:1026E000140C014010B5FFF721FF00BF00F050FAB5
:1026F000FFF7F6FE0128F9D010BD000070B50021EB
:1027000000230F22C47804B3154C246804F4E06459
:10271000C4F5E064210AC1F10403CA40447804FA14
:1027200003F184781440214309010E4C0678A15529
:10273000047804F01F050124AC4005786D11AD004C
:1027400005F1E025C5F8004109E0047804F01F0513
:102750000124AC40044D0678761145F8264070BD42
:102760000CED00E000E400E080E100E002490143FC
:10277000024A1160704700000000FA050CED00E00D
:10278000704700004448006844490968401A4449B9
:102790000988884200D270473F4800683F49086076
:1027A0003F48807806286FD2DFE800F026030E321B
:1027B00043554FF400703B49086002200860000256
:1027C00008600420086063E03648001F006880F05D
:1027D00002003449091F08600846006880F4007050
:1027E00008600846006880F0040008600846006839
:1027F00080F4807008604BE04FF400702949091D97
:10280000086002200860C0010860042008603FE002
:102810004FF40070234908600220091D0860C001C0
:10282000091F08600420091D086002201C498870E7
:102830002EE002201B49091D086004200860194889
:10284000001F006880F400701649091F08606420AA
:10285000134908801CE04FF400701249091D0860FC
:10286000401008600F48001F006880F002000D490A
:10287000091F08600846006880F0040008604620D0
:102880000749088004E0FFE701200549887000BF80
:1028900000BF00BF7FE700001C00002040000020B8
:1028A0003C000020100C01402DE9F05F04464FF081
:1028B0007F594FF07C512046FDF7B0FC82462546FB
:1028C0002E460C48A0EB6606354629465046FDF7D5
:1028D000A5FC83462946FDF7A1FC80464946FDF745
:1028E0009AFC07462946FDF799FC05462846BDE8AF
:1028F000F09F0000DF59375F29B1064AD2690243D1
:10290000044BDA6104E0034AD2698243014BDA6185
:10291000704700000010024029B1064A9269024344
:10292000044B9A6104E0034A92698243014B9A6125
:10293000704700000010024030B500210022002442
:1029400000232D4D6D6805F00C0121B1042905D03F
:10295000082923D105E0294D056022E0274D0560B7
:102960001FE0254D6D6805F47012234D6D6805F468
:102970008034022505EB92421CB9214D5543056078
:102980000BE01D4D6D6805F400351DB11C4D554320
:10299000056002E0194D5543056002E0174D0560E2
:1029A00000BF00BF144D6D6805F0F0010909154D19
:1029B0006B5C0568DD4045600F4D6D6805F4E061B6
:1029C000090A104D6B5C4568DD4085600A4D6D68F5
:1029D00005F46051C90A0B4D6B5C4568DD40C5606C
:1029E000054D6D6805F44041890B074D6B5CC5686A
:1029F000B5FBF3F5056130BD0010024000127A000E
:102A000000093D0027000020370000202DE9F0419B
:102A10005648FFF713FE00287ED100255449088050
:102A2000002405E05148005D2844C5B2601CC4B2D2
:102A30001F2CF7DB4D48C07FA8426ED14B48007871
:102A4000AA28FAD149484078AF287CD14748407934
:102A50004649097940EA0120464908804348C0793F
:102A60004249897940EA0120424948803F48407AFA
:102A70003E49097A40EA01203E4988803B48C07AB5
:102A80003A49897A40EA01203A49C8803748407B70
:102A90003649097B40EA0120364908813348C07B2A
:102AA0003249897B40EA0120324948812F48407CE5
:102AB0002E49097C40EA01202E4988812B48C07CA0
:102AC0002A49897C40EA01202A49C8812A4E2B4F95
:102AD000498840F2DC52501AFDF729FD8046314604
:102AE000FDF79CFB264908602249098840F2DC5228
:102AF000501AFDF71CFD80463146FDF78FFB21493A
:102B000008601C48C08840F21C7188420BDD1E49D9
:102B100008684FF07D5101E016E014E0FDF726FB58
:102B2000194908600DE01348C08840F29C41884272
:102B300007DA154908684FF07D51FDF769FB124926
:102B4000086001F093FA0FE009480088401C08492A
:102B5000088008460088B0F5487F05DD0020088021
:102B60000A490870FFF7BEFDBDE8F0811F03002091
:102B70009A000020080100200AD7233DA69BC43AF2
:102B8000B4010020E80100201C02002026000020E3
:102B900010B54FF4006012490860052211492A203F
:102BA000FFF766FD01212120FFF784FD012122208E
:102BB000FFF780FD2D212520FFF77CFD202131200E
:102BC000FFF778FD0F212620FFF774FD0F2120204D
:102BD000FFF770FD4FF400600149091F086010BD48
:102BE00014080140DD41000821B1028842F0400292
:102BF000028004E002884FF6BF731A4002807047DB
:102C000000B587B001218803FFF776FE0121092076
:102C1000FFF782FE4FF480511C48FEF7BAFA4FF4DA
:102C20006040ADF8040003208DF8060018208DF8F0
:102C3000070001A91548FEF721FA00211448FFF703
:102C4000D3FF0020ADF808004FF48270ADF80A0001
:102C50000020ADF80C00ADF80E00ADF810004FF4F8
:102C60000070ADF812001020ADF814000020ADF88F
:102C700016000720ADF8180002A9054800F018F862
:102C800001210348FFF7B0FF07B000BD000C014071
:102C9000003800400246002013890B400BB1012090
:102CA00000E00020704701468889704781817047A5
:102CB00010B50022028802F441520B884C8823434D
:102CC0008C882343CC8823430C8923434C8923439A
:102CD0008C892343CC8923431A430280838B4FF290
:102CE000FF74234083830B8A038210BD10B5044612
:102CF00000BF02210A48FFF7CDFF0028F9D0214686
:102D00000748FFF7D3FF00BF01210548FFF7C2FFC7
:102D10000028F9D00248FFF7C6FFC0B210BD00007E
:102D200000380040704710B500F002F810BD0000F8
:102D30000CB50020019000903348006840F48030CA
:102D40003149086000BF3048006800F4003000904E
:102D50000198401C0190009818B90198B0F5A06F37
:102D6000F1D12948006800F4003010B10120009032
:102D700001E0002000900098012843D1234800681A
:102D800040F01000214908600846006820F0030068
:102D900008600846006840F0020008601A48406871
:102DA000194948600846406848600846406840F451
:102DB000806048600846406820F47C1048600846FF
:102DC000406840F4E81048600846006840F08070B1
:102DD000086000BF0C48006800F000700028F9D0BF
:102DE0000948406820F003000749486008464068E9
:102DF00040F00200486000BF0348406800F00C004B
:102E00000828F9D10CBD000000100240002002404B
:102E100002480068401C0149086070471C000020FF
:102E200010B51348006840F00100114908600846D9
:102E30004068104908400E494860084600680E493D
:102E400008400B4908600846006820F480200860AC
:102E50000846406820F4FE0048604FF41F00886078
:102E6000FFF761FF4FF000600449086010BD0000EB
:102E7000001002400000FFF8FFFFF6FE08ED00E042
:102E800000B589B001210420FFF746FD0F20ADF801
:102E9000040003208DF8060018208DF8070001A912
:102EA0002848FEF7EBF801210846FFF725FD40F220
:102EB000E730ADF81C000820ADF818000020ADF890
:102EC0001E00ADF81A0006A94FF0804000F046FA47
:102ED0006020ADF808000120ADF80A000020ADF830
:102EE0000E00ADF8100002A94FF0804000F0DAF8B3
:102EF0000821C80600F022F902A94FF0804000F036
:102F000027F90821C80600F075F902A94FF08040A2
:102F100000F07EF90821C80600F0CAF902A94FF0B6
:102F2000804000F0CFF90821C80600F009FA01211D
:102F3000880700F081F80121880700F08CF809B0BB
:102F400000BD0000000801401FB501210220FFF76D
:102F5000D3FC1D208DF8000001208DF80100032016
:102F60008DF8020001208DF803006846FFF7C6FBCC
:102F700040F22B10ADF8080040F2CF20ADF804006D
:102F80000020ADF80A00ADF8060001A9064800F0DF
:102F9000E5F901221146044800F07AF801210248BF
:102FA00000F059F81FBD00000004004010B50121D9
:102FB000194800F05CF870B318480068401C1749C5
:102FC000086017480078401C1549087015480078BB
:102FD000401C144908701248007801280BD10020C9
:102FE0000F490870FFF72EF9FFF710FD0E48FDF7A7
:102FF000A5FFFEF7E1FF0B480078022807D100206B
:1030000008490870094A0A490A48FEF7C5F801212B
:10301000014800F01DF810BD000400401C00002015
:103020001800002019000020A69B443BB020CD3B97
:10303000FC000020F000002021B1028842F0800254
:10304000028004E002884FF67F731A4002807047C6
:10305000CA430282704721B1028842F00102028015
:1030600004E002884FF6FE731A400280704730B5C4
:103070000246002000230024158A05EA01039589F1
:1030800005EA010413B10CB1012000E0002030BDBD
:103090001AB183890B43838102E083898B43838147
:1030A0007047000070B5002400220023058C4FF605
:1030B000FE7635400584028C8388048B4FF68F752D
:1030C0002C40B51E2C400D882C43751E2A400D89BE
:1030D0002A434D882A43144DA8420BD0134DA842D1
:1030E00008D0134DA84205D0124DA84202D0124D6F
:1030F000A84213D14FF6F7752A404D892A434FF65F
:10310000FB752A408D882A434FF6FF652B404FF60A
:10311000FF552B408D892B43CD892B43838004831E
:10312000CD888586028470BD002C014000340140AA
:103130000040014000440140004801400A4600218F
:10314000018B4FF6F773194011430183704700005C
:1031500070B5002400220023058C4FF6EF76354031
:103160000584028C8388048B48F6FF752C404FF64B
:10317000FF452C400D884FF6FF7606EA05252C43C7
:103180004FF6DF752A400D8906EA05152A434D885A
:1031900006EA05152A43154DA84202D0144DA8424F
:1031A0001DD14FF67F752A404D894FF6FF7606EA0E
:1031B00005152A434FF6BF752A408D8806EA051586
:1031C0002A434FF6FF352B404FF2FF752B408D8978
:1031D00006EA85052B43CD8906EA85052B438380C6
:1031E0000483CD880587028470BD0000002C014057
:1031F000003401400A460021018B4FF2FF73194051
:103200004FF6FF7303EA022319430183704700005E
:1032100070B5002400220023058C4FF6FF66354070
:103220000584028C8388848B4FF68F752C404FF673
:10323000FC752C400D882C434FF6FF552A400D8914
:103240004FF6FF7606EA05252A434D8806EA05254E
:103250002A43154DA84202D0144DA8421DD14FF269
:10326000FF752A404D894FF6FF7606EA05252A4369
:103270004FF6FF352A408D8806EA05252A434EF68B
:10328000FF752B404DF6FF752B408D8906EA05151D
:103290002B43CD8906EA05152B4383808483CD8893
:1032A0008587028470BD0000002C0140003401407D
:1032B0000A460021818B4FF6F77319401143818331
:1032C0007047000070B5002200230024058C4EF6E4
:1032D000FF7635400584038C8488828B48F6FF7521
:1032E0002A404FF6FF452A400D884FF6FF7606EA42
:1032F00005252A434DF6FF752B400D8906EA053555
:103300002B434D8806EA05352B430B4DA84202D0CE
:103310000A4DA84208D14BF6FF752C408D894FF617
:10332000FF7606EA85152C4384808283CD88A0F839
:103330004050038470BD0000002C01400034014067
:103340000A460021818B4FF2FF7319404FF6FF733D
:1033500003EA022319438183704700000022028898
:103360001D4B98420ED01D4B98420BD0B0F1804FB0
:1033700008D01B4B984205D01A4B984202D01A4BEA
:10338000984204D14FF68F731A404B881A43174B5B
:10339000984207D0164B984204D04FF6FF431A408C
:1033A000CB881A4302808B8883850B8803850A4B60
:1033B00098420BD0094B984208D00E4B984205D04A
:1033C0000D4B984202D00D4B984201D10B7A0386E7
:1033D0000123838270470000002C0140003401402B
:1033E0000004004000080040000C004000100040B5
:1033F00000140040004001400044014000480140EA
:1034000000B587B001212448FFF776FA27208DF810
:10341000040000208DF805008DF8060001208DF8CD
:10342000070001A8FFF76AF94FF48060ADF81800B3
:1034300018208DF81B0003208DF81A0006A91748E4
:10344000FDF71CFE4FF40060ADF8180004208DF865
:103450001B0006A91148FDF711FE1148029000203B
:10346000ADF80C00ADF80E00ADF81000ADF814008A
:103470000C20ADF8120002A90A4800F0E1F8012280
:1034800040F22551074800F0B5F80121054800F049
:10349000A5F807B000BD000008000400000C0140C2
:1034A00020A107000048004070B53C4800883B4818
:1034B000008840F22551084000286ED03748001D92
:1034C000008840B23649374A127888543548007827
:1034D00010B101281AD10AE0314890F900005630A5
:1034E00020B930480078401C2E49087054E02C4820
:1034F00090F90100513028B92A480078401C294928
:10350000087002E000202749087045E0244890F93F
:103510000300001D23490978884205DD2148007811
:10352000401C2049087037E00025002405E01C48B5
:10353000005D284445B2601CC4B21A480078844239
:10354000F5DB1748174909784056A8421CD11448A2
:10355000807815490871084645710020887100245B
:1035600009E0114880791049095D084440B20E49CC
:103570008871601CC4B2062CF3DB07210A4800F0F6
:1035800015F80748FDF700FA0020064908700449BD
:103590000870487000BF00BF00BF70BD0048004009
:1035A00006030020920000209300002070B505461D
:1035B0000E4600240DE000BF0748008800F08000A0
:1035C0000028F9D0285781B2034800F0A5F8601C04
:1035D000C4B2B442EFDB70BD0048004021B1828923
:1035E00042F40052828104E082894DF6FF731A4052
:1035F00082817047F0B50346002400260025002094
:1036000040F66A17B94200D100BF1846C1F3421410
:1036100001F01F06012707FA06F5012C01D10C3035
:1036200004E0022C01D1103000E014301AB1076818
:103630002F43076002E00768AF430760F0BD00005A
:103640002DE9F04786B005460E460024A24600BF8D
:10365000A1460027B08900B100BF2F462C8A4CF646
:10366000FF700440F08804432C82AC894EF6F310BE
:103670000440B08831890843718908430443AC8110
:10368000AC8A4FF6FF400440B0890443AC8201A8E5
:10369000FFF752F91F48874202D1DDF810A001E080
:1036A000DDF80CA0A88900F4004040B10AEBCA0084
:1036B00000EB0A1031684900B0FBF1F807E00AEBB3
:1036C000CA0000EB0A1031688900B0FBF1F86420F1
:1036D000B8FBF0F004012009642101FB1089A889DE
:1036E00000F4004040B1322000EBC900B0FBF1F023
:1036F00000F00700044308E0322000EB09106421C9
:10370000B0FBF1F000F00F0004432C8106B0BDE8DF
:10371000F087000000380140C1F308028280704742
:1037200000BFFEE7490050EAC12018BF04204A0D3F
:1037300018BF40F0010040F2FF72B2EB515F08BFCA
:1037400040F00200012808BF052070472DE9F04134
:103750004F1E00EBC7010446D1E9000115461E4685
:1037600037F006020DD02A463346FCF76EFE7F1E68
:1037700004EBC703D3E90023FCF7C0FD37F00602D2
:10378000F1D1022F25D0042F13D0062F18BFBDE88A
:10379000F0812A463346FCF758FED4E90A23FCF7A9
:1037A000ADFD2A463346FCF750FED4E90823FCF76A
:1037B000A5FD2A463346FCF748FED4E90623FCF76C
:1037C0009DFD2A463346FCF740FED4E90423FCF76E
:1037D00095FD2A463346FCF738FED4E90223FCF770
:1037E0008DFD2A463346FCF730FED4E90023BDE8C0
:1037F000F041FCF783BD0122FDF728B8FCF77EBD40
:103800000022134610461146FCF7B1BF024A0020C1
:103810001107FDF71BB8000001FDFFFF02E008C81B
:10382000121F08C1002AFAD170477047002001E03A
:1038300001C1121F002AFBD1704700000149086036
:1038400070470000EC0000202DE9F04D8D4F21F075
:10385000004A86B005460C46BA452ADBAAEB0700AB
:1038600028430AD08848824501DC1AD1CDB106B080
:103870002846BDE8F04DFFF7BEBF844A844B28467A
:10388000FCF7E3FD07460E46824A834B2846214655
:10389000FCF7DBFD06B03A463346BDE8F04DFCF7D9
:1038A0002DBD0120FFF7CAFF06B0BDE8F04DFFF7C0
:1038B000A7BF7A48824542DABAF1795F0BDA284627
:1038C000FFF730FF042808BFFFF7A0FF284606B027
:1038D0002146BDE8F08D2A460B461046FCF7B5FDA3
:1038E000834602466E480E460B4606217844FFF793
:1038F0002DFF5A463346FCF7A8FD804669488A46A4
:103900005A46334604217844FFF720FF5A4633468F
:10391000FCF79BFD00223B46FCF7F0FC02460B4601
:1039200040465146FCF723FF2A462346FCF78DFD0F
:1039300006B02A462346BDE8F04DFCF7DFBC28461A
:1039400024F0004100223D463B46FCF77BFD4FF052
:10395000FF32FCF77BFF0646024653480F460B46F4
:1039600006217844FFF7F2FE32463B46FCF76DFD38
:10397000CDE900014D4832463B4604217844FFF72B
:10398000E5FE32463B46FCF760FD00222B46FCF785
:10399000B5FC834602913046394600F0F7FB80467D
:1039A00043480D46504517DCDDE900015A46029BAD
:1039B000FCF7DDFE42462B46FCF747FD42462B4610
:1039C000FCF79CFC0122FCF741FF304A304BFCF72E
:1039D00036FD304A304B4CE04FF0000A52460B4661
:1039E0004046FCF78BFCCDE9031052462B461046AF
:1039F0001946FCF72AFD32463B46FCF723FDDDE97C
:103A00000332FCF7B4FE06460F46DDE900015A46D4
:103A1000029BFCF7ACFE83460091012230463946FA
:103A2000FCF714FF194A1A4BFCF70CFD06460F462B
:103A3000012240462946FCF709FF5A46009BFCF745
:103A400004FD32463B46FCF7FAFC06460F460122CF
:103A500050462946FCF7FAFE0E4DDFF858802A46FC
:103A60004346FCF7EFFC32463B46FCF7EBFC2A46AC
:103A70004346FCF7E7FC002CD8BF81F0004106B0BC
:103A8000BDE8F08D0000F03F0000F07F075C1433CC
:103A900026A6913C182D4454FB21F93F0000E03F3D
:103AA00010090000260900009A080000B008000074
:103AB0003333EF3FFB21E93F2DE9F84F04460D4634
:103AC00021F0004000917349814211DC7249884223
:103AD00001DC06D12CB120462946BDE8F84FFFF79E
:103AE0008ABE6E48002DCCBF6D496E49BDE8F88F87
:103AF0006D49814211DD6D498142D8BF4FF0FF36DB
:103B00006DDD20462946FFF70DFE042808BFFFF7AC
:103B10007DFE20462946BDE8F88F6549654F25F0B2
:103B20000045814233DD6449814219DD0026324679
:103B30004FF0804320462946FCF7E0FB80468A464A
:103B4000012220462946FCF781FE00223B46FCF775
:103B500076FC42465346FCF70AFE04460D463EE01C
:103B600001260022BA463B4620462946FCF7C6FB02
:103B700080460F460022534620462946FCF75FFC4C
:103B800042463B46FCF7F3FD04460D4627E04B4911
:103B900081421BDDDFF828A1022600225346204681
:103BA0002946FCF752FC00223B46FCF7A7FB804667
:103BB0000F460022534620462946FCF740FC424669
:103BC0003B46FCF7D4FD04460D4608E0032622469A
:103BD0002B4600203B49FCF7CAFD04460D46224611
:103BE0002B4610461946FCF730FC8B4682460246AF
:103BF0000B46FCF72AFC07460246334888460B462C
:103C000006217844FFF7A2FD52465B46FCF71DFCF7
:103C100082462E488B463A46434605217844FFF7B4
:103C200095FD3A464346FCF710FC02460B46002E33
:103C3000504659460CDAFCF761FB22462B46FCF74E
:103C400004FC01B022462B46BDE8F04FFCF7FABB5E
:103C5000FCF754FB22462B46FCF7F7FB1C4A7A4440
:103C600002EBC603D3E90023FCF7E9FB22462B460F
:103C7000FCF7E5FB174A7A4402EBC603D3E90023BD
:103C8000FCF7E0FB009A002AB8BF81F00041BDE8D4
:103C9000F88F0000000010440000F07F182D4454FD
:103CA000FB21F93FFB21F9BF0000DC3F0000203E73
:103CB0000000F33F0000F03F0000E63F00800340BB
:103CC0000000F83F0000F0BFB206000070060000E0
:103CD0000E060000D60500002DE9F04D9446CCF10B
:103CE000000423F000464CEA0404524F46EAD47420
:103CF0009A46884621F00042BC4206D8454240EA36
:103D0000050442EAD474BC4204D9BDE8F04D6246D1
:103D1000FFF774BDAAF14055A5F17F6555EA0C0483
:103D20000BD0022404EAAA74434DDFF810E144EA00
:103D3000D87452EA000B04D00CE0BDE8F04DFFF758
:103D4000BBBE002C14BF012CBDE8F08D022C30D07E
:103D5000032C32D056EA0C0B0AD0BE4220D1BA4214
:103D600009D126F0804622F080423346114617E002
:103D700000291ADB25E0DFF8C8B0FB44002C04BFA3
:103D8000DBE90001BDE8F08D012C02BFDBE9000199
:103D900081F00041BDE8F08D022C0AD0032C0CD03C
:103DA000BA4212D1B8F1000F0BDA23482549BDE819
:103DB000F08D28462449BDE8F08D28467146BDE8BF
:103DC000F08D1D482149BDE8F08D921B12153C2A4B
:103DD000C4BF19481D490EDCBAF1000FBEBF12F175
:103DE0003C0F0020014606DB6246FCF7C0FC21F0D8
:103DF0000041FFF761FE002C08BFBDE8F08D012CEB
:103E000004BF81F00041BDE8F08D114A114B022C36
:103E100007D0FCF714FB2A46BDE8F04D0A4BFCF72F
:103E20000EBBFCF70CFB2A46BDE8F04D064BFCF739
:103E300009BB00000000F07F182D4454FB2109C08D
:103E40006A050000FB21F9BFFB210940FB21F93F76
:103E5000075C143326A6A13C00B585B06846FEF782
:103E60006BFD04490098B0FBF1F00349086005B010
:103E700000BD000040420F001400002030B5044691
:103E8000FDF730FD054600BFFDF72CFD401B04EBA0
:103E90004401C1EBC411B0EBC10FF5D330BD2DE926
:103EA000F04104460D4621692068FCF75FF9606027
:103EB00061696068FCF75AF9064631466068FCF7AC
:103EC000DFF9E0602846A168FCF7A2F90746E1683F
:103ED000FCF7A4F90646A168FCF748F9A0604FF08A
:103EE0007E50E168FCF794F906466168FCF796F9A4
:103EF0002060BDE8F0810000FFF7AEFF4FF4A06046
:103F0000FEF734FC174800684FF47A72B0FBF2F108
:103F1000B1F1807F00D31DE021F07F40401E4FF0C3
:103F2000E022506150170F22002807DA13071D0EF8
:103F30000D4B00F00F04241F1D5503E013071C0E4A
:103F40000A4B1C5400BF00204FF0E0229061072074
:103F5000106100BFFCF705FD03E0FCF7B1FEFEF7C2
:103F600011FCFAE70000002018ED00E000E400E09A
:103F700010B5024600200EE0002352F82040E36016
:103F800052F82040A36052F82040A36252F820402B
:103F90006360431CD8B28842EEDB10BD2DE9F05FB0
:103FA00004460E46616A2068FCF732F90546314640
:103FB0002846FCF733F98046E168FCF7D7F8E06063
:103FC000A1682846FCF724F980463146FCF758F9E9
:103FD0000746A0693946FCF721F98146E168606926
:103FE000FCF71CF9824620692946FCF717F983463D
:103FF0005146FCF7BBF880464946FCF7B7F8A0628B
:10400000A560BDE8F09F00004FF080400F490861B7
:104010000F4908614FF081400E49086100200B49AB
:1040200048610B4948610B4948610B480749886161
:10403000074988614FF07C50064988610748084964
:1040400008610849086108490861704718010020A3
:104050004C010020800100200AD7A33D0000E04071
:10406000B4010020E80100201C02002041488088A3
:10407000B0F5966F07DA3F48C088B0F5966F02DA60
:10408000FF203D4908703C480078042834D006DC05
:10409000012809D0022811D0032864D122E01F286A
:1040A00034D0FF285FD14EE03248808840F27E4114
:1040B000884202DA02203049087058E02D48808892
:1040C000B0F5E16F0DDD2D480078401C2B490870DC
:1040D00008460078052804DD0020087003202649E2
:1040E000087044E02348808840F27E41884202DA2A
:1040F0000420214908703AE00120214908701F205E
:104100001D49087000201F49887030E019488088D8
:10411000B0F57F7F0CDA1C4801880088401C1A4AE1
:104120001080B1F5FA6F0DDDFF201349087009E02A
:104130001348007818B9FF200F49087002E00020EA
:104140001149088013E002200E49887000200E49B2
:10415000088064200B49088000200949087001206C
:104160000549087003E0FF200349087000BF00BF45
:1041700070470000080100209C000020A0000020E3
:10418000260000203C0000209E0000202DE9F04188
:1041900006460F46FCF794FB04000D4618BF0120AD
:1041A000284320F00040C0F17F6000F1E040C00FE4
:1041B0000ED0301C18BF0120384320F00040C0F161
:1041C0007F6000F1E040C00F04BF0120FFF736FB25
:1041D00020462946BDE8F08111223344551122338F
:1041E00044550000DB0F4940E12E654235FA8E3C14
:1041F000F6FF793D2E9E8B3AD80FC93F0000000094
:10420000555555555555C53F7D6FEB0312D6D4BF57
:104210005544880E55C1C93F3B8F68B52882A4BF5D
:1042200088B20175E0EF493F09F7FD0DE13D023F1E
:104230004B2D8A1C273A03C0C88A599CE52A0040A6
:1042400059018D1B6C06E6BF82922EB1C5B8B33FF3
:104250004FBB610567ACDD3F182D4454FB21E93F9E
:104260009BF681D20B73EF3F182D4454FB21F93F8D
:10427000E2652F227F2B7A3C075C143326A6813C13
:10428000BDCBF07A8807703C075C143326A6913CBE
:10429000C4EB98999999C9BF711623FEC671BCBF2A
:1042A0006D9A74AFF2B0B3BF9AFDDE522DDEADBF92
:1042B0002F6C6A2C44B4A2BF0D5555555555D53FAA
:1042C000FF8300922449C23F6E204CC5CD45B73FC5
:1042D000513DD0A0660DB13FEB0D76244B7BA93F3D
:1042E00011DA22E33AAD903F000000000000000028
:1042F0001043000800000020F00000001C380008F7
:1043000000440008F0000020600600002C3800087F
:1043100000A24A04000000000000000001020304A3
:10432000060708090000000000000000000000006F
:104330000000000000000000000000010203040172
:104340000203040607080902040608002C01020003
:1043500000000000F00000200AD7A33C000000008D
:1043600000000000000000006F12833A0C020B3FB7
:104370000AD7A33C0000000000000000000000007D
:104380006F12833A0C020B3F0AD7A33C00000000D7
:1043900000000000000000006F12833A0C020B3F87
:1043A000000000AAAAEF02000000000001000000C7
:1043B00000000000180100204C01002080010020B6
:1043C000E8010020B40100201C020020500200205F
:1043D0008402002000000000000000000101000035
:1043E00000000000CDCC4C3F52499D390000803F79
:1043F00000000000000000000000000000000000BD
:04000005080000ED02
:00000001FF
