:10097A003F065B4F666D7D077F6F777C395E7971C5
:040908007FC87E0026
:10090C007C3F7DFF120879D3EF9400EE94004007F2
:08091C00EF1F70F31E80F022B2
:0709C400C2901209CBD29191
:0109CB002209
:0A09BA00D291D2901209CBC2902214
:10092400E4FEC291EF1392901209C6C2911209CB50
:08093400EFC313FF0EBE08EA39
:01093C002298
:06093D0024C0FF12092492
:10094300C2911209CB2090FDD2911209CBC2912200
:0D098A001209C4C2911209CBD2900209CB10
:0B09AF00C2911209CB1209C4D29022A1
:0C0997001209BA1209241209430209AF28
:100968003000047F0880027F00EF2480250DFF02FD
:020978000997DD
:08088B008B098A0A890BAD07F5
:100893001209BA7F401209241209431209AF12093F
:1008A300BAED12093DE4FDEDC3950C5014AB09AA52
:1008B3000AA90B8D8275830012084C12093F0D8023
:0408C300E60209AF91
:1008E800AC071209BAEC244012093F1209AF1209E9
:1008F800BAEC12093DAF051209241209430209AFE7
:10095300ED90097A93FE3000047D2080027D00EE45
:050963004DFD0208E853
:10080000D200750D07120968E4FBAF037DFF1208E3
:10081000E80BBB06F5120908E4FBAF03E4FD120880
:10082000E80BBB06F5120908E4FBAF037DFF1208D5
:10083000E80BBB06F5120908E4FBAF03E4FD120860
:0C084000E80BBB06F57FC87E0002090C27
:1008C700120800E4FBE4FAAF02AD03C200120953B9
:1008D7000ABA06F37FE87E0312090C0BBB10E68009
:0108E700E22E
:0309CC000208C757
:030000000209A34F
:0C09A300787FE4F6D8FD7581200209CCB5
:10084C00BB010CE58229F582E5833AF583E0225061
:10085C0006E92582F8E622BBFE06E92582F8E222AB
:0D086C00E58229F582E5833AF583E49322C5
:10087900EF8DF0A4A8F0CF8CF0A428CE8DF0A42E93
:02088900FE224D
:00000001FF
