:1008A200D3EF9400EE940040147D6E7C00ED1D7039
:0D08B200011CED4C70F7EF1F70E61E80E397
:0108BF002216
:10080000AE07ED7005C374079FFEEEB408005052AA
:10081000900817F828287302082F020833020837B7
:1008200002083D02084302084C020855020859D24A
:10083000978031D2978002C297D2968029C297D2F0
:10084000968004C297C296D295C29422C297C2964D
:10085000D295D29422C2978002D297C296C295D2E4
:0A0860009422C297C296C295C2947A
:01086A00226B
:10086B00E4F508FB750901FAF9E9FF7E00BE0110FA
:10087B00BF2C0DEB70047F0180027F00AB07E4F906
:10088B00AF020AAD03120800BA0802E4FAAF097E00
:07089B00001208A20980D23F
:030000000208C033
:0C08C000787FE4F6D8FD75810902086B12
:00000001FF
